{
  "contractName": "SlackerToken",
  "abi": [
    {
      "inputs": [
        {
          "internalType": "uint256",
          "name": "_initialSupply",
          "type": "uint256"
        }
      ],
      "payable": false,
      "stateMutability": "nonpayable",
      "type": "constructor"
    },
    {
      "anonymous": false,
      "inputs": [
        {
          "indexed": true,
          "internalType": "string",
          "name": "_from",
          "type": "string"
        },
        {
          "indexed": true,
          "internalType": "string",
          "name": "_to",
          "type": "string"
        },
        {
          "indexed": false,
          "internalType": "uint256",
          "name": "_value",
          "type": "uint256"
        }
      ],
      "name": "Transfer",
      "type": "event"
    },
    {
      "constant": true,
      "inputs": [],
      "name": "decimal",
      "outputs": [
        {
          "internalType": "uint256",
          "name": "",
          "type": "uint256"
        }
      ],
      "payable": false,
      "stateMutability": "view",
      "type": "function"
    },
    {
      "constant": true,
      "inputs": [],
      "name": "totalSupply",
      "outputs": [
        {
          "internalType": "uint256",
          "name": "",
          "type": "uint256"
        }
      ],
      "payable": false,
      "stateMutability": "view",
      "type": "function"
    },
    {
      "constant": false,
      "inputs": [
        {
          "internalType": "string",
          "name": "_slackerId",
          "type": "string"
        }
      ],
      "name": "setSlacker",
      "outputs": [
        {
          "internalType": "bool",
          "name": "success",
          "type": "bool"
        }
      ],
      "payable": false,
      "stateMutability": "nonpayable",
      "type": "function"
    },
    {
      "constant": true,
      "inputs": [],
      "name": "getName",
      "outputs": [
        {
          "internalType": "string",
          "name": "",
          "type": "string"
        }
      ],
      "payable": false,
      "stateMutability": "pure",
      "type": "function"
    },
    {
      "constant": true,
      "inputs": [],
      "name": "getSymbol",
      "outputs": [
        {
          "internalType": "string",
          "name": "",
          "type": "string"
        }
      ],
      "payable": false,
      "stateMutability": "pure",
      "type": "function"
    },
    {
      "constant": true,
      "inputs": [],
      "name": "getTotalSupply",
      "outputs": [
        {
          "internalType": "uint256",
          "name": "",
          "type": "uint256"
        }
      ],
      "payable": false,
      "stateMutability": "view",
      "type": "function"
    },
    {
      "constant": true,
      "inputs": [],
      "name": "getAccountList",
      "outputs": [
        {
          "internalType": "string[]",
          "name": "",
          "type": "string[]"
        }
      ],
      "payable": false,
      "stateMutability": "view",
      "type": "function"
    },
    {
      "constant": false,
      "inputs": [
        {
          "internalType": "string",
          "name": "_from",
          "type": "string"
        },
        {
          "internalType": "string",
          "name": "_to",
          "type": "string"
        },
        {
          "internalType": "uint256",
          "name": "_value",
          "type": "uint256"
        }
      ],
      "name": "transferFrom",
      "outputs": [
        {
          "internalType": "bool",
          "name": "success",
          "type": "bool"
        }
      ],
      "payable": false,
      "stateMutability": "nonpayable",
      "type": "function"
    }
  ],
  "bytecode": "0x6080604052600060025534801561001557600080fd5b50604051610bf6380380610bf683398181016040526100379190810190610059565b80600381905550506100a3565b6000815190506100538161008c565b92915050565b60006020828403121561006b57600080fd5b600061007984828501610044565b91505092915050565b6000819050919050565b61009581610082565b81146100a057600080fd5b50565b610b44806100b26000396000f3fe608060405234801561001057600080fd5b50600436106100885760003560e01c80635d1b1e6d1161005b5780635d1b1e6d1461010557806376809ce314610135578063c4e41b2214610153578063d436c97d1461017157610088565b8063150704011461008d57806317d7de7c146100ab57806318160ddd146100c95780632843314e146100e7575b600080fd5b6100956101a1565b6040516100a2919061094f565b60405180910390f35b6100b36101de565b6040516100c0919061094f565b60405180910390f35b6100d161021b565b6040516100de9190610991565b60405180910390f35b6100ef610221565b6040516100fc9190610912565b60405180910390f35b61011f600480360361011a91908101906106f2565b61030f565b60405161012c9190610934565b60405180910390f35b61013d610450565b60405161014a9190610991565b60405180910390f35b61015b610456565b6040516101689190610991565b60405180910390f35b61018b600480360361018691908101906106b1565b610460565b6040516101989190610934565b60405180910390f35b60606040518060400160405280600281526020017f5354000000000000000000000000000000000000000000000000000000000000815250905090565b60606040518060400160405280600d81526020017f536c61636b657220546f6b656e00000000000000000000000000000000000000815250905090565b60035481565b6060806000805480602002602001604051908101604052809291908181526020016000905b82821015610302578382906000526020600020018054600181600116156101000203166002900480601f0160208091040260200160405190810160405280929190818152602001828054600181600116156101000203166002900480156102ee5780601f106102c3576101008083540402835291602001916102ee565b820191906000526020600020905b8154815290600101906020018083116102d157829003601f168201915b505050505081526020019060010190610246565b5050505090508091505090565b600060018460405161032191906108fb565b90815260200160405180910390205482111561033c57600080fd5b61036d8260018660405161035091906108fb565b9081526020016040518091039020546104a990919063ffffffff16565b60018560405161037d91906108fb565b9081526020016040518091039020819055506103c0826001856040516103a391906108fb565b9081526020016040518091039020546104f390919063ffffffff16565b6001846040516103d091906108fb565b908152602001604051809103902081905550826040516103f091906108fb565b60405180910390208460405161040691906108fb565b60405180910390207f5358be4df107be4d9b023fc323f41d7109610225c6ef211b9d375b9fbd7ccc4f8460405161043d9190610991565b60405180910390a3600190509392505050565b60025481565b6000600354905090565b60008082908060018154018082558091505090600182039060005260206000200160009091929091909150908051906020019061049e9291906105a3565b505060019050919050565b60006104eb83836040518060400160405280601e81526020017f536166654d6174683a207375627472616374696f6e206f766572666c6f770000815250610548565b905092915050565b60008082840190508381101561053e576040517f08c379a000000000000000000000000000000000000000000000000000000000815260040161053590610971565b60405180910390fd5b8091505092915050565b6000838311158290610590576040517f08c379a0000000000000000000000000000000000000000000000000000000008152600401610587919061094f565b60405180910390fd5b5060008385039050809150509392505050565b828054600181600116156101000203166002900490600052602060002090601f016020900481019282601f106105e457805160ff1916838001178555610612565b82800160010185558215610612579182015b828111156106115782518255916020019190600101906105f6565b5b50905061061f9190610623565b5090565b61064591905b80821115610641576000816000905550600101610629565b5090565b90565b600082601f83011261065957600080fd5b813561066c610667826109d9565b6109ac565b9150808252602083016020830185838301111561068857600080fd5b610693838284610a97565b50505092915050565b6000813590506106ab81610aea565b92915050565b6000602082840312156106c357600080fd5b600082013567ffffffffffffffff8111156106dd57600080fd5b6106e984828501610648565b91505092915050565b60008060006060848603121561070757600080fd5b600084013567ffffffffffffffff81111561072157600080fd5b61072d86828701610648565b935050602084013567ffffffffffffffff81111561074a57600080fd5b61075686828701610648565b92505060406107678682870161069c565b9150509250925092565b600061077d8383610873565b905092915050565b600061079082610a15565b61079a8185610a43565b9350836020820285016107ac85610a05565b8060005b858110156107e857848403895281516107c98582610771565b94506107d483610a36565b925060208a019950506001810190506107b0565b50829750879550505050505092915050565b61080381610a81565b82525050565b600061081482610a2b565b61081e8185610a65565b935061082e818560208601610aa6565b61083781610ad9565b840191505092915050565b600061084d82610a2b565b6108578185610a76565b9350610867818560208601610aa6565b80840191505092915050565b600061087e82610a20565b6108888185610a54565b9350610898818560208601610aa6565b6108a181610ad9565b840191505092915050565b60006108b9601b83610a65565b91507f536166654d6174683a206164646974696f6e206f766572666c6f7700000000006000830152602082019050919050565b6108f581610a8d565b82525050565b60006109078284610842565b915081905092915050565b6000602082019050818103600083015261092c8184610785565b905092915050565b600060208201905061094960008301846107fa565b92915050565b600060208201905081810360008301526109698184610809565b905092915050565b6000602082019050818103600083015261098a816108ac565b9050919050565b60006020820190506109a660008301846108ec565b92915050565b6000604051905081810181811067ffffffffffffffff821117156109cf57600080fd5b8060405250919050565b600067ffffffffffffffff8211156109f057600080fd5b601f19601f8301169050602081019050919050565b6000819050602082019050919050565b600081519050919050565b600081519050919050565b600081519050919050565b6000602082019050919050565b600082825260208201905092915050565b600082825260208201905092915050565b600082825260208201905092915050565b600081905092915050565b60008115159050919050565b6000819050919050565b82818337600083830152505050565b60005b83811015610ac4578082015181840152602081019050610aa9565b83811115610ad3576000848401525b50505050565b6000601f19601f8301169050919050565b610af381610a8d565b8114610afe57600080fd5b5056fea365627a7a72315820c3e29e4c44f45abe226b53826f29575ea3eab0149fe650417ceb86e4c52776066c6578706572696d656e74616cf564736f6c63430005100040",
  "source": "// SPDX-License-Identifier: MIT\npragma solidity >=0.4.22 <0.9.0;\npragma experimental ABIEncoderV2;\n\nimport './SafeMath.sol';\n\ncontract SlackerToken {\n    using SafeMath for uint256;\n\n    string[] slackers;\n    mapping(string => uint) balances;\n\n    uint256 public decimal = 0;\n    uint256 public totalSupply;\n\n    event Transfer(\n        string indexed _from,\n        string indexed _to,\n        uint256 _value\n    );\n\n    constructor(uint256 _initialSupply) public{\n        // balances[slackers[0]] = _initialSupply;\n        totalSupply = _initialSupply;\n    }\n\n    function setSlacker(string memory _slackerId)public returns(bool success){\n        slackers.push(_slackerId);\n        return true;\n    }\n\n    function getName() public pure returns(string memory) {\n        return 'Slacker Token';\n    }\n     function getSymbol() public pure returns(string memory) {\n        return 'ST';\n    }\n\n    function getTotalSupply() public view returns(uint256){\n        return  totalSupply;\n    }\n\n    function getAccountList() public view returns(string[] memory) {\n        string[] memory tempArr = slackers;\n        return tempArr;\n    }\n\n    function transferFrom(string memory _from, string memory _to, uint256 _value) public returns (bool success) {\n\n        require(_value <= balances[_from]);\n\n        // require(_value <= allowance[_from][msg.sender]);\n\n        balances[_from] = balances[_from].sub(_value);\n\n        balances[_to] = balances[_to].add(_value);\n\n        // allowance[_from][msg.sender] = allowance[_from][msg.sender].sub(_value); \n\n        emit Transfer( _from,  _to, _value);\n\n        return true;\n    }\n\n}\n\n",
  "sourcePath": "/home/domcs/social-currency/contracts/SlackerToken.sol",
  "compiler": {
    "name": "solc",
    "version": "0.5.16+commit.9c3226ce.Emscripten.clang"
  },
  "schemaVersion": "3.4.0",
  "updatedAt": "2021-04-29T00:21:46.742Z",
  "networkType": "ethereum",
  "devdoc": {
    "methods": {}
  },
  "userdoc": {
    "methods": {}
  }
}