{
  "contractName": "SlackerToken",
  "abi": [
    {
      "inputs": [
        {
          "internalType": "uint256",
          "name": "_initialSupply",
          "type": "uint256"
        }
      ],
      "payable": false,
      "stateMutability": "nonpayable",
      "type": "constructor"
    },
    {
      "anonymous": false,
      "inputs": [
        {
          "indexed": true,
          "internalType": "string",
          "name": "_from",
          "type": "string"
        },
        {
          "indexed": true,
          "internalType": "string",
          "name": "_to",
          "type": "string"
        },
        {
          "indexed": false,
          "internalType": "uint256",
          "name": "_value",
          "type": "uint256"
        }
      ],
      "name": "Transfer",
      "type": "event"
    },
    {
      "constant": true,
      "inputs": [],
      "name": "decimal",
      "outputs": [
        {
          "internalType": "uint256",
          "name": "",
          "type": "uint256"
        }
      ],
      "payable": false,
      "stateMutability": "view",
      "type": "function"
    },
    {
      "constant": true,
      "inputs": [],
      "name": "totalSupply",
      "outputs": [
        {
          "internalType": "uint256",
          "name": "",
          "type": "uint256"
        }
      ],
      "payable": false,
      "stateMutability": "view",
      "type": "function"
    },
    {
      "constant": true,
      "inputs": [],
      "name": "getName",
      "outputs": [
        {
          "internalType": "string",
          "name": "",
          "type": "string"
        }
      ],
      "payable": false,
      "stateMutability": "pure",
      "type": "function"
    },
    {
      "constant": true,
      "inputs": [],
      "name": "getSymbol",
      "outputs": [
        {
          "internalType": "string",
          "name": "",
          "type": "string"
        }
      ],
      "payable": false,
      "stateMutability": "pure",
      "type": "function"
    },
    {
      "constant": true,
      "inputs": [],
      "name": "getTotalSupply",
      "outputs": [
        {
          "internalType": "uint256",
          "name": "",
          "type": "uint256"
        }
      ],
      "payable": false,
      "stateMutability": "view",
      "type": "function"
    },
    {
      "constant": false,
      "inputs": [
        {
          "internalType": "string",
          "name": "_from",
          "type": "string"
        },
        {
          "internalType": "string",
          "name": "_to",
          "type": "string"
        },
        {
          "internalType": "uint256",
          "name": "_value",
          "type": "uint256"
        }
      ],
      "name": "transferFrom",
      "outputs": [
        {
          "internalType": "bool",
          "name": "success",
          "type": "bool"
        }
      ],
      "payable": false,
      "stateMutability": "nonpayable",
      "type": "function"
    }
  ],
  "bytecode": "0x6080604052600060025534801561001557600080fd5b5060405161082c38038061082c83398181016040526100379190810190610059565b80600381905550506100a3565b6000815190506100538161008c565b92915050565b60006020828403121561006b57600080fd5b600061007984828501610044565b91505092915050565b6000819050919050565b61009581610082565b81146100a057600080fd5b50565b61077a806100b26000396000f3fe608060405234801561001057600080fd5b50600436106100625760003560e01c8063150704011461006757806317d7de7c1461008557806318160ddd146100a35780635d1b1e6d146100c157806376809ce3146100f1578063c4e41b221461010f575b600080fd5b61006f61012d565b60405161007c91906105da565b60405180910390f35b61008d61016a565b60405161009a91906105da565b60405180910390f35b6100ab6101a7565b6040516100b8919061061c565b60405180910390f35b6100db60048036036100d69190810190610461565b6101ad565b6040516100e891906105bf565b60405180910390f35b6100f96102ee565b604051610106919061061c565b60405180910390f35b6101176102f4565b604051610124919061061c565b60405180910390f35b60606040518060400160405280600281526020017f5354000000000000000000000000000000000000000000000000000000000000815250905090565b60606040518060400160405280600d81526020017f536c61636b657220546f6b656e00000000000000000000000000000000000000815250905090565b60035481565b60006001846040516101bf91906105a8565b9081526020016040518091039020548211156101da57600080fd5b61020b826001866040516101ee91906105a8565b9081526020016040518091039020546102fe90919063ffffffff16565b60018560405161021b91906105a8565b90815260200160405180910390208190555061025e8260018560405161024191906105a8565b90815260200160405180910390205461034890919063ffffffff16565b60018460405161026e91906105a8565b9081526020016040518091039020819055508260405161028e91906105a8565b6040518091039020846040516102a491906105a8565b60405180910390207f5358be4df107be4d9b023fc323f41d7109610225c6ef211b9d375b9fbd7ccc4f846040516102db919061061c565b60405180910390a3600190509392505050565b60025481565b6000600354905090565b600061034083836040518060400160405280601e81526020017f536166654d6174683a207375627472616374696f6e206f766572666c6f77000081525061039d565b905092915050565b600080828401905083811015610393576040517f08c379a000000000000000000000000000000000000000000000000000000000815260040161038a906105fc565b60405180910390fd5b8091505092915050565b60008383111582906103e5576040517f08c379a00000000000000000000000000000000000000000000000000000000081526004016103dc91906105da565b60405180910390fd5b5060008385039050809150509392505050565b600082601f83011261040957600080fd5b813561041c61041782610664565b610637565b9150808252602083016020830185838301111561043857600080fd5b6104438382846106cd565b50505092915050565b60008135905061045b81610720565b92915050565b60008060006060848603121561047657600080fd5b600084013567ffffffffffffffff81111561049057600080fd5b61049c868287016103f8565b935050602084013567ffffffffffffffff8111156104b957600080fd5b6104c5868287016103f8565b92505060406104d68682870161044c565b9150509250925092565b6104e9816106b7565b82525050565b60006104fa82610690565b610504818561069b565b93506105148185602086016106dc565b61051d8161070f565b840191505092915050565b600061053382610690565b61053d81856106ac565b935061054d8185602086016106dc565b80840191505092915050565b6000610566601b8361069b565b91507f536166654d6174683a206164646974696f6e206f766572666c6f7700000000006000830152602082019050919050565b6105a2816106c3565b82525050565b60006105b48284610528565b915081905092915050565b60006020820190506105d460008301846104e0565b92915050565b600060208201905081810360008301526105f481846104ef565b905092915050565b6000602082019050818103600083015261061581610559565b9050919050565b60006020820190506106316000830184610599565b92915050565b6000604051905081810181811067ffffffffffffffff8211171561065a57600080fd5b8060405250919050565b600067ffffffffffffffff82111561067b57600080fd5b601f19601f8301169050602081019050919050565b600081519050919050565b600082825260208201905092915050565b600081905092915050565b60008115159050919050565b6000819050919050565b82818337600083830152505050565b60005b838110156106fa5780820151818401526020810190506106df565b83811115610709576000848401525b50505050565b6000601f19601f8301169050919050565b610729816106c3565b811461073457600080fd5b5056fea365627a7a723158208aa8ec5dd307aad2b589870f8f80ad1e3b538f2d3357c817fd5c17c0732264e96c6578706572696d656e74616cf564736f6c63430005100040",
  "source": "// SPDX-License-Identifier: MIT\npragma solidity >=0.4.22 <0.9.0;\npragma experimental ABIEncoderV2;\n\nimport './SafeMath.sol';\n\ncontract SlackerToken {\n    using SafeMath for uint256;\n\n    string[] slackers;\n    mapping(string => uint) balances;\n\n    uint256 public decimal = 0;\n    uint256 public totalSupply;\n\n    event Transfer(\n        string indexed _from,\n        string indexed _to,\n        uint256 _value\n    );\n\n    // event Approval(\n    //     address indexed _owner,\n    //     address indexed _spender,\n    //     uint256 _value\n    // );\n\n  \n    // function addUser(string memory slackId) public pure returns(string memory) {\n    //     return slackId;\n    // }\n \n    constructor(uint256 _initialSupply) public{\n        // balances[slackers[0]] = _initialSupply;\n        totalSupply = _initialSupply;\n    }\n\n    function getName() public pure returns(string memory) {\n        return 'Slacker Token';\n    }\n     function getSymbol() public pure returns(string memory) {\n        return 'ST';\n    }\n\n    function getTotalSupply() public view returns(uint256){\n        return  totalSupply;\n    }\n\n\n    // function approve(address _spender, uint256 _value) public returns(bool success) {\n\n    //     allowance[msg.sender][_spender] = _value;\n\n    //     emit Approval(msg.sender, _spender, _value);\n\n    //     return true;\n    // }\n\n\n    function transferFrom(string memory _from, string memory _to, uint256 _value) public returns (bool success) {\n\n        require(_value <= balances[_from]);\n\n        // require(_value <= allowance[_from][msg.sender]);\n\n        balances[_from] = balances[_from].sub(_value);\n\n        balances[_to] = balances[_to].add(_value);\n\n        // allowance[_from][msg.sender] = allowance[_from][msg.sender].sub(_value); \n\n        emit Transfer( _from,  _to, _value);\n\n        return true;\n    }\n\n    // function generateAccount(string memory slackId) public returns(bool success) { \n    //     toHash = \n    \n    // }\n}\n\n",
  "sourcePath": "/home/domcs/social-currency/contracts/SlackerToken.sol",
  "compiler": {
    "name": "solc",
    "version": "0.5.16+commit.9c3226ce.Emscripten.clang"
  },
  "schemaVersion": "3.4.0",
  "updatedAt": "2021-04-28T23:12:36.953Z",
  "networkType": "ethereum",
  "devdoc": {
    "methods": {}
  },
  "userdoc": {
    "methods": {}
  }
}