{
  "contractName": "SlackerToken",
  "abi": [
    {
      "inputs": [
        {
          "internalType": "uint256",
          "name": "_initialSupply",
          "type": "uint256"
        }
      ],
      "payable": false,
      "stateMutability": "nonpayable",
      "type": "constructor"
    },
    {
      "anonymous": false,
      "inputs": [
        {
          "indexed": true,
          "internalType": "address",
          "name": "_owner",
          "type": "address"
        },
        {
          "indexed": true,
          "internalType": "address",
          "name": "_spender",
          "type": "address"
        },
        {
          "indexed": false,
          "internalType": "uint256",
          "name": "_value",
          "type": "uint256"
        }
      ],
      "name": "Approval",
      "type": "event"
    },
    {
      "anonymous": false,
      "inputs": [
        {
          "indexed": true,
          "internalType": "address",
          "name": "_from",
          "type": "address"
        },
        {
          "indexed": true,
          "internalType": "address",
          "name": "_to",
          "type": "address"
        },
        {
          "indexed": false,
          "internalType": "uint256",
          "name": "_value",
          "type": "uint256"
        }
      ],
      "name": "Transfer",
      "type": "event"
    },
    {
      "constant": true,
      "inputs": [
        {
          "internalType": "address",
          "name": "",
          "type": "address"
        }
      ],
      "name": "_slackId",
      "outputs": [
        {
          "internalType": "string",
          "name": "",
          "type": "string"
        }
      ],
      "payable": false,
      "stateMutability": "view",
      "type": "function"
    },
    {
      "constant": true,
      "inputs": [
        {
          "internalType": "address",
          "name": "",
          "type": "address"
        },
        {
          "internalType": "address",
          "name": "",
          "type": "address"
        }
      ],
      "name": "allowance",
      "outputs": [
        {
          "internalType": "uint256",
          "name": "",
          "type": "uint256"
        }
      ],
      "payable": false,
      "stateMutability": "view",
      "type": "function"
    },
    {
      "constant": true,
      "inputs": [
        {
          "internalType": "address",
          "name": "",
          "type": "address"
        }
      ],
      "name": "balanceOf",
      "outputs": [
        {
          "internalType": "uint256",
          "name": "",
          "type": "uint256"
        }
      ],
      "payable": false,
      "stateMutability": "view",
      "type": "function"
    },
    {
      "constant": true,
      "inputs": [],
      "name": "decimal",
      "outputs": [
        {
          "internalType": "uint256",
          "name": "",
          "type": "uint256"
        }
      ],
      "payable": false,
      "stateMutability": "view",
      "type": "function"
    },
    {
      "constant": true,
      "inputs": [],
      "name": "name",
      "outputs": [
        {
          "internalType": "string",
          "name": "",
          "type": "string"
        }
      ],
      "payable": false,
      "stateMutability": "view",
      "type": "function"
    },
    {
      "constant": true,
      "inputs": [
        {
          "internalType": "uint256",
          "name": "",
          "type": "uint256"
        }
      ],
      "name": "slackers",
      "outputs": [
        {
          "internalType": "string",
          "name": "",
          "type": "string"
        }
      ],
      "payable": false,
      "stateMutability": "view",
      "type": "function"
    },
    {
      "constant": true,
      "inputs": [],
      "name": "standard",
      "outputs": [
        {
          "internalType": "string",
          "name": "",
          "type": "string"
        }
      ],
      "payable": false,
      "stateMutability": "view",
      "type": "function"
    },
    {
      "constant": true,
      "inputs": [],
      "name": "symbol",
      "outputs": [
        {
          "internalType": "string",
          "name": "",
          "type": "string"
        }
      ],
      "payable": false,
      "stateMutability": "view",
      "type": "function"
    },
    {
      "constant": true,
      "inputs": [],
      "name": "totalSupply",
      "outputs": [
        {
          "internalType": "uint256",
          "name": "",
          "type": "uint256"
        }
      ],
      "payable": false,
      "stateMutability": "view",
      "type": "function"
    },
    {
      "constant": true,
      "inputs": [
        {
          "internalType": "address",
          "name": "userAddress",
          "type": "address"
        }
      ],
      "name": "userBalance",
      "outputs": [
        {
          "internalType": "uint256",
          "name": "",
          "type": "uint256"
        }
      ],
      "payable": false,
      "stateMutability": "view",
      "type": "function"
    },
    {
      "constant": false,
      "inputs": [
        {
          "internalType": "address",
          "name": "userAddress",
          "type": "address"
        },
        {
          "internalType": "uint256",
          "name": "_amount",
          "type": "uint256"
        }
      ],
      "name": "addUserFunds",
      "outputs": [],
      "payable": false,
      "stateMutability": "nonpayable",
      "type": "function"
    },
    {
      "constant": true,
      "inputs": [],
      "name": "getName",
      "outputs": [
        {
          "internalType": "string",
          "name": "",
          "type": "string"
        }
      ],
      "payable": false,
      "stateMutability": "pure",
      "type": "function"
    },
    {
      "constant": false,
      "inputs": [
        {
          "internalType": "string",
          "name": "_slackerId",
          "type": "string"
        }
      ],
      "name": "setSlacker",
      "outputs": [
        {
          "internalType": "bool",
          "name": "success",
          "type": "bool"
        }
      ],
      "payable": false,
      "stateMutability": "nonpayable",
      "type": "function"
    },
    {
      "constant": true,
      "inputs": [],
      "name": "getSlackers",
      "outputs": [
        {
          "internalType": "string[]",
          "name": "",
          "type": "string[]"
        }
      ],
      "payable": false,
      "stateMutability": "view",
      "type": "function"
    },
    {
      "constant": false,
      "inputs": [
        {
          "internalType": "address",
          "name": "_to",
          "type": "address"
        },
        {
          "internalType": "uint256",
          "name": "_value",
          "type": "uint256"
        }
      ],
      "name": "transfer",
      "outputs": [
        {
          "internalType": "bool",
          "name": "success",
          "type": "bool"
        }
      ],
      "payable": false,
      "stateMutability": "nonpayable",
      "type": "function"
    },
    {
      "constant": false,
      "inputs": [
        {
          "internalType": "address",
          "name": "_spender",
          "type": "address"
        },
        {
          "internalType": "uint256",
          "name": "_value",
          "type": "uint256"
        }
      ],
      "name": "approve",
      "outputs": [
        {
          "internalType": "bool",
          "name": "success",
          "type": "bool"
        }
      ],
      "payable": false,
      "stateMutability": "nonpayable",
      "type": "function"
    },
    {
      "constant": false,
      "inputs": [
        {
          "internalType": "address",
          "name": "_from",
          "type": "address"
        },
        {
          "internalType": "address",
          "name": "_to",
          "type": "address"
        },
        {
          "internalType": "uint256",
          "name": "_value",
          "type": "uint256"
        }
      ],
      "name": "transferFrom",
      "outputs": [
        {
          "internalType": "bool",
          "name": "success",
          "type": "bool"
        }
      ],
      "payable": false,
      "stateMutability": "nonpayable",
      "type": "function"
    }
  ],
  "bytecode": "0x60806040526040518060400160405280600d81526020017f536c61636b657220546f6b656e00000000000000000000000000000000000000815250600190805190602001906200005192919062000178565b506040518060400160405280600281526020017f5354000000000000000000000000000000000000000000000000000000000000815250600290805190602001906200009f92919062000178565b506040518060400160405280600f81526020017f535420746f6b656e2076312e302e30000000000000000000000000000000000081525060039080519060200190620000ed92919062000178565b5060006004553480156200010057600080fd5b50604051620019da380380620019da83398181016040526200012691908101906200023e565b80600660003373ffffffffffffffffffffffffffffffffffffffff1673ffffffffffffffffffffffffffffffffffffffff1681526020019081526020016000208190555080600581905550506200028e565b828054600181600116156101000203166002900490600052602060002090601f016020900481019282601f10620001bb57805160ff1916838001178555620001ec565b82800160010185558215620001ec579182015b82811115620001eb578251825591602001919060010190620001ce565b5b509050620001fb9190620001ff565b5090565b6200022491905b808211156200022057600081600090555060010162000206565b5090565b90565b600081519050620002388162000274565b92915050565b6000602082840312156200025157600080fd5b6000620002618482850162000227565b91505092915050565b6000819050919050565b6200027f816200026a565b81146200028b57600080fd5b50565b61173c806200029e6000396000f3fe608060405234801561001057600080fd5b506004361061010b5760003560e01c806376809ce3116100a2578063a9059cbb11610071578063a9059cbb146102d2578063cc58f59014610302578063d41de81414610332578063d436c97d1461034e578063dd62ed3e1461037e5761010b565b806376809ce31461024857806377ce18f7146102665780637e6491b91461029657806395d89b41146102b45761010b565b806318160ddd116100de57806318160ddd146101ac57806323b872dd146101ca5780635a3b7e42146101fa57806370a08231146102185761010b565b80630103c92b1461011057806306fdde0314610140578063095ea7b31461015e57806317d7de7c1461018e575b600080fd5b61012a600480360361012591908101906111be565b6103ae565b604051610137919061154b565b60405180910390f35b6101486103f7565b60405161015591906114e7565b60405180910390f35b61017860048036036101739190810190611272565b610495565b60405161018591906114cc565b60405180910390f35b610196610587565b6040516101a39190611509565b60405180910390f35b6101b46105c4565b6040516101c1919061154b565b60405180910390f35b6101e460048036036101df9190810190611223565b6105ca565b6040516101f191906114cc565b60405180910390f35b61020261094a565b60405161020f91906114e7565b60405180910390f35b610232600480360361022d91908101906111be565b6109e8565b60405161023f919061154b565b60405180910390f35b610250610a00565b60405161025d919061154b565b60405180910390f35b610280600480360361027b91908101906111be565b610a06565b60405161028d91906114e7565b60405180910390f35b61029e610ab6565b6040516102ab91906114aa565b60405180910390f35b6102bc610ba4565b6040516102c991906114e7565b60405180910390f35b6102ec60048036036102e79190810190611272565b610c42565b6040516102f991906114cc565b60405180910390f35b61031c600480360361031791908101906112ef565b610e29565b60405161032991906114e7565b60405180910390f35b61034c60048036036103479190810190611272565b610ee2565b005b610368600480360361036391908101906112ae565b610f33565b60405161037591906114cc565b60405180910390f35b610398600480360361039391908101906111e7565b610f7c565b6040516103a5919061154b565b60405180910390f35b6000600660008373ffffffffffffffffffffffffffffffffffffffff1673ffffffffffffffffffffffffffffffffffffffff168152602001908152602001600020549050919050565b60018054600181600116156101000203166002900480601f01602080910402602001604051908101604052809291908181526020018280546001816001161561010002031660029004801561048d5780601f106104625761010080835404028352916020019161048d565b820191906000526020600020905b81548152906001019060200180831161047057829003601f168201915b505050505081565b600081600860003373ffffffffffffffffffffffffffffffffffffffff1673ffffffffffffffffffffffffffffffffffffffff16815260200190815260200160002060008573ffffffffffffffffffffffffffffffffffffffff1673ffffffffffffffffffffffffffffffffffffffff168152602001908152602001600020819055508273ffffffffffffffffffffffffffffffffffffffff163373ffffffffffffffffffffffffffffffffffffffff167f8c5be1e5ebec7d5bd14f71427d1e84f3dd0314c0f7b2291e5b200ac8c7c3b92584604051610575919061154b565b60405180910390a36001905092915050565b60606040518060400160405280600d81526020017f536c61636b657220546f6b656e00000000000000000000000000000000000000815250905090565b60055481565b6000600660008573ffffffffffffffffffffffffffffffffffffffff1673ffffffffffffffffffffffffffffffffffffffff1681526020019081526020016000205482111561061857600080fd5b600860008573ffffffffffffffffffffffffffffffffffffffff1673ffffffffffffffffffffffffffffffffffffffff16815260200190815260200160002060003373ffffffffffffffffffffffffffffffffffffffff1673ffffffffffffffffffffffffffffffffffffffff168152602001908152602001600020548211156106a157600080fd5b6106f382600660008773ffffffffffffffffffffffffffffffffffffffff1673ffffffffffffffffffffffffffffffffffffffff16815260200190815260200160002054610fa190919063ffffffff16565b600660008673ffffffffffffffffffffffffffffffffffffffff1673ffffffffffffffffffffffffffffffffffffffff1681526020019081526020016000208190555061078882600660008673ffffffffffffffffffffffffffffffffffffffff1673ffffffffffffffffffffffffffffffffffffffff16815260200190815260200160002054610feb90919063ffffffff16565b600660008573ffffffffffffffffffffffffffffffffffffffff1673ffffffffffffffffffffffffffffffffffffffff1681526020019081526020016000208190555061085a82600860008773ffffffffffffffffffffffffffffffffffffffff1673ffffffffffffffffffffffffffffffffffffffff16815260200190815260200160002060003373ffffffffffffffffffffffffffffffffffffffff1673ffffffffffffffffffffffffffffffffffffffff16815260200190815260200160002054610fa190919063ffffffff16565b600860008673ffffffffffffffffffffffffffffffffffffffff1673ffffffffffffffffffffffffffffffffffffffff16815260200190815260200160002060003373ffffffffffffffffffffffffffffffffffffffff1673ffffffffffffffffffffffffffffffffffffffff168152602001908152602001600020819055508273ffffffffffffffffffffffffffffffffffffffff168473ffffffffffffffffffffffffffffffffffffffff167fddf252ad1be2c89b69c2b068fc378daa952ba7f163c4a11628f55a4df523b3ef84604051610937919061154b565b60405180910390a3600190509392505050565b60038054600181600116156101000203166002900480601f0160208091040260200160405190810160405280929190818152602001828054600181600116156101000203166002900480156109e05780601f106109b5576101008083540402835291602001916109e0565b820191906000526020600020905b8154815290600101906020018083116109c357829003601f168201915b505050505081565b60066020528060005260406000206000915090505481565b60045481565b60076020528060005260406000206000915090508054600181600116156101000203166002900480601f016020809104026020016040519081016040528092919081815260200182805460018160011615610100020316600290048015610aae5780601f10610a8357610100808354040283529160200191610aae565b820191906000526020600020905b815481529060010190602001808311610a9157829003601f168201915b505050505081565b6060806000805480602002602001604051908101604052809291908181526020016000905b82821015610b97578382906000526020600020018054600181600116156101000203166002900480601f016020809104026020016040519081016040528092919081815260200182805460018160011615610100020316600290048015610b835780601f10610b5857610100808354040283529160200191610b83565b820191906000526020600020905b815481529060010190602001808311610b6657829003601f168201915b505050505081526020019060010190610adb565b5050505090508091505090565b60028054600181600116156101000203166002900480601f016020809104026020016040519081016040528092919081815260200182805460018160011615610100020316600290048015610c3a5780601f10610c0f57610100808354040283529160200191610c3a565b820191906000526020600020905b815481529060010190602001808311610c1d57829003601f168201915b505050505081565b600081600660003373ffffffffffffffffffffffffffffffffffffffff1673ffffffffffffffffffffffffffffffffffffffff168152602001908152602001600020541015610c9057600080fd5b610ce282600660003373ffffffffffffffffffffffffffffffffffffffff1673ffffffffffffffffffffffffffffffffffffffff16815260200190815260200160002054610fa190919063ffffffff16565b600660003373ffffffffffffffffffffffffffffffffffffffff1673ffffffffffffffffffffffffffffffffffffffff16815260200190815260200160002081905550610d7782600660008673ffffffffffffffffffffffffffffffffffffffff1673ffffffffffffffffffffffffffffffffffffffff16815260200190815260200160002054610feb90919063ffffffff16565b600660008573ffffffffffffffffffffffffffffffffffffffff1673ffffffffffffffffffffffffffffffffffffffff168152602001908152602001600020819055508273ffffffffffffffffffffffffffffffffffffffff163373ffffffffffffffffffffffffffffffffffffffff167fddf252ad1be2c89b69c2b068fc378daa952ba7f163c4a11628f55a4df523b3ef84604051610e17919061154b565b60405180910390a36001905092915050565b60008181548110610e3657fe5b906000526020600020016000915090508054600181600116156101000203166002900480601f016020809104026020016040519081016040528092919081815260200182805460018160011615610100020316600290048015610eda5780601f10610eaf57610100808354040283529160200191610eda565b820191906000526020600020905b815481529060010190602001808311610ebd57829003601f168201915b505050505081565b80600660008473ffffffffffffffffffffffffffffffffffffffff1673ffffffffffffffffffffffffffffffffffffffff168152602001908152602001600020600082825401925050819055505050565b600080829080600181540180825580915050906001820390600052602060002001600090919290919091509080519060200190610f7192919061109b565b505060019050919050565b6008602052816000526040600020602052806000526040600020600091509150505481565b6000610fe383836040518060400160405280601e81526020017f536166654d6174683a207375627472616374696f6e206f766572666c6f770000815250611040565b905092915050565b600080828401905083811015611036576040517f08c379a000000000000000000000000000000000000000000000000000000000815260040161102d9061152b565b60405180910390fd5b8091505092915050565b6000838311158290611088576040517f08c379a000000000000000000000000000000000000000000000000000000000815260040161107f9190611509565b60405180910390fd5b5060008385039050809150509392505050565b828054600181600116156101000203166002900490600052602060002090601f016020900481019282601f106110dc57805160ff191683800117855561110a565b8280016001018555821561110a579182015b828111156111095782518255916020019190600101906110ee565b5b509050611117919061111b565b5090565b61113d91905b80821115611139576000816000905550600101611121565b5090565b90565b60008135905061114f816116cb565b92915050565b600082601f83011261116657600080fd5b813561117961117482611593565b611566565b9150808252602083016020830185838301111561119557600080fd5b6111a0838284611678565b50505092915050565b6000813590506111b8816116e2565b92915050565b6000602082840312156111d057600080fd5b60006111de84828501611140565b91505092915050565b600080604083850312156111fa57600080fd5b600061120885828601611140565b925050602061121985828601611140565b9150509250929050565b60008060006060848603121561123857600080fd5b600061124686828701611140565b935050602061125786828701611140565b9250506040611268868287016111a9565b9150509250925092565b6000806040838503121561128557600080fd5b600061129385828601611140565b92505060206112a4858286016111a9565b9150509250929050565b6000602082840312156112c057600080fd5b600082013567ffffffffffffffff8111156112da57600080fd5b6112e684828501611155565b91505092915050565b60006020828403121561130157600080fd5b600061130f848285016111a9565b91505092915050565b600061132483836113e9565b905092915050565b6000611337826115cf565b61134181856115fd565b935083602082028501611353856115bf565b8060005b8581101561138f57848403895281516113708582611318565b945061137b836115f0565b925060208a01995050600181019050611357565b50829750879550505050505092915050565b6113aa81611642565b82525050565b60006113bb826115e5565b6113c5818561161f565b93506113d5818560208601611687565b6113de816116ba565b840191505092915050565b60006113f4826115da565b6113fe818561160e565b935061140e818560208601611687565b611417816116ba565b840191505092915050565b600061142d826115da565b611437818561161f565b9350611447818560208601611687565b611450816116ba565b840191505092915050565b6000611468601b8361161f565b91507f536166654d6174683a206164646974696f6e206f766572666c6f7700000000006000830152602082019050919050565b6114a48161166e565b82525050565b600060208201905081810360008301526114c4818461132c565b905092915050565b60006020820190506114e160008301846113a1565b92915050565b600060208201905081810360008301526115018184611422565b905092915050565b6000602082019050818103600083015261152381846113b0565b905092915050565b600060208201905081810360008301526115448161145b565b9050919050565b6000602082019050611560600083018461149b565b92915050565b6000604051905081810181811067ffffffffffffffff8211171561158957600080fd5b8060405250919050565b600067ffffffffffffffff8211156115aa57600080fd5b601f19601f8301169050602081019050919050565b6000819050602082019050919050565b600081519050919050565b600081519050919050565b600081519050919050565b6000602082019050919050565b600082825260208201905092915050565b600082825260208201905092915050565b600082825260208201905092915050565b600061163b8261164e565b9050919050565b60008115159050919050565b600073ffffffffffffffffffffffffffffffffffffffff82169050919050565b6000819050919050565b82818337600083830152505050565b60005b838110156116a557808201518184015260208101905061168a565b838111156116b4576000848401525b50505050565b6000601f19601f8301169050919050565b6116d481611630565b81146116df57600080fd5b50565b6116eb8161166e565b81146116f657600080fd5b5056fea365627a7a72315820e6a0198a5243fa222a094e67be7f57ae3ac3f84246a085a4b90fd03b73cfa1da6c6578706572696d656e74616cf564736f6c63430005100040",
  "source": "// SPDX-License-Identifier: MIT\npragma solidity >=0.4.22 <0.9.0;\npragma experimental ABIEncoderV2;\n\nimport './SafeMath.sol';\n\ncontract SlackerToken {\n    using SafeMath for uint256;\n\n    string[] public slackers;\n    string public name = 'Slacker Token';\n    string public symbol = 'ST';\n    string public standard = 'ST token v1.0.0';\n    uint256 public decimal = 0;\n    uint256 public totalSupply;\n\n    event Transfer(\n        address indexed _from,\n        address indexed _to,\n        uint256 _value\n    );\n\n    event Approval(\n        address indexed _owner,\n        address indexed _spender,\n        uint256 _value\n    );\n\n    constructor(uint256 _initialSupply) public{\n        balanceOf[msg.sender] = _initialSupply;\n        totalSupply = _initialSupply;\n    }\n\n    mapping(address => uint256) public balanceOf;\n    mapping(address => string) public _slackId;\n    mapping(address => mapping(address => uint256)) public allowance;\n    // mapping(string => mapping(address => uint256)) public _slackId;\n    // mapping(address => user) users;\n\n    // struct user {\n\t// \tstring slackId;\n    // }\n\n    // function addUser(string memory _slackId) public pure returns(string memory) {\n    //     return _slackId;\n    // }\n\n    function userBalance(address userAddress) public view returns(uint){\n        return balanceOf[userAddress];\n    }\n    function addUserFunds(address userAddress, uint _amount) public{\n        balanceOf[userAddress] += _amount;\n    }\n\n    function getName() public pure returns(string memory) {\n        return 'Slacker Token';\n\n    }\n\n    function setSlacker(string memory _slackerId) public returns (bool success) {\n        slackers.push(_slackerId);\n        return true;\n    }\n\n    function getSlackers() public view returns (string[] memory) {\n        string[] memory arr = slackers;\n        return arr;\n    }\n\n    function transfer(address _to, uint256 _value) public returns(bool success) {\n\n    require(balanceOf[msg.sender] >= _value);\n    \n    balanceOf[msg.sender] = balanceOf[msg.sender].sub(_value);\n    balanceOf[_to] = balanceOf[_to].add(_value);\n    \n    emit Transfer(msg.sender, _to, _value);\n    \n    return true;\n\n    }\n\n    function approve(address _spender, uint256 _value) public returns(bool success) {\n\n        allowance[msg.sender][_spender] = _value;\n\n        emit Approval(msg.sender, _spender, _value);\n\n        return true;\n    }\n\n\n    function transferFrom(address _from, address _to, uint256 _value) public returns (bool success) {\n\n        require(_value <= balanceOf[_from]);\n\n        require(_value <= allowance[_from][msg.sender]);\n\n        balanceOf[_from] = balanceOf[_from].sub(_value);\n\n        balanceOf[_to] = balanceOf[_to].add(_value);\n\n        allowance[_from][msg.sender] = allowance[_from][msg.sender].sub(_value); \n\n        emit Transfer(_from, _to, _value);\n\n        return true;\n    }\n}",
  "sourcePath": "/Users/tylerfarris/Documents/Alchemy/social-currency/contracts/SlackerToken.sol",
  "compiler": {
    "name": "solc",
    "version": "0.5.16+commit.9c3226ce.Emscripten.clang"
  },
  "schemaVersion": "3.3.4",
  "updatedAt": "2021-04-29T04:45:10.324Z",
  "devdoc": {
    "methods": {}
  },
  "userdoc": {
    "methods": {}
  }
}